:020000040800F2
:1080000028200020858F00088D8F00087D8D0008B6
:10801000918F0008958F0008998F000800000000DC
:108020000000000000000000000000009D8F00081C
:10803000A18F000800000000A58F0008598D0008DE
:10804000A98F0008AD8F0008B18F0008B58F000818
:10805000B98F0008BD8F0008458C0008518C0008BE
:108060005D8C0008698C0008758C0008C18F0008C1
:10807000C58F0008C98F0008CD8F0008D18F000878
:10808000D58F0008D98F0008DD8F0008E18F000828
:10809000E58F0008E98F0008ED8F0008818C00084B
:1080A000F18F0008F58F0008F98F0008FD8F000898
:1080B0000190000805900008099000080D90000844
:1080C0001190000815900008199000081D900008F4
:1080D00021900008238D00082590000829900008B1
:1080E000CB8C00082D9000083190000835900008D6
:1080F000399000083D900008419000084590000824
:10810000499000084D9000085190000855900008D3
:10811000599000085D900008619000086590000883
:10812000699000086D900008719000087590000833
:10813000799000087D9000088190000885900008E3
:10814000899000088D900008919000089590000893
:10815000999000089D900008A1900008A590000843
:10816000A9900008AD900008B1900008B5900008F3
:10817000B9900008BD900008C19000080000000000
:10818000C5900008C99000080100DFF8CC24914296
:1081900020D0DFF8C824914223D0DFF8C4249142D4
:1081A00026D0DFF8C024914229D0DFF8BC249142C8
:1081B0002CD0DFF8B82491422FD0DFF8B4249142BC
:1081C00032D0DFF8B024914235D0DFF8AC249142B0
:1081D00038D03EE0DFF8A4140A6852F001020A60C9
:1081E00037E0DFF898140A6852F002020A6030E0C3
:1081F000DFF888140A6852F004020A6029E0DFF808
:108200007C140A6852F008020A6022E0DFF86C145D
:108210000A6852F010020A601BE0DFF860140A6876
:1082200052F020020A6014E0DFF850140A6852F09D
:1082300040020A600DE0DFF844140A6852F0800240
:108240000A6006E0DFF834140A6852F480720A60AB
:10825000FFE77047F8B504000D0016001F0020006E
:10826000FFF792FF21680122EDB2680082401143BE
:10827000216060683100C9B2A94008436060A1680C
:108280003A00D2B2EDB2680082401143A160F1BD64
:10829000F8B504000D0016001F002000FFF774FF62
:1082A00021680222EDB268008240114321606068BB
:1082B0003100C9B2A94008436060A1683A00D2B257
:1082C000EDB2680082401143A160F1BD70B50400B9
:1082D0000D0016002000FFF757FF20682060E168BE
:1082E0003200D2B2EDB2680082401143E16070BD4D
:1082F0002DE9F04705000E0017009846089C3A004B
:10830000D2B23100C9B22800FFF7E0FFDFF87003F6
:10831000016851F480410160FF212800DFF8382313
:10832000904220D0DFF8342390421FD0DFF8302372
:1083300090421ED0DFF82C2390421DD0DFF8282376
:1083400090421CD0DFF8242390421BD0DFF820237A
:1083500090421AD0DFF81C23904219D0DFF818237E
:10836000904218D01AE00020010017E0012001001F
:1083700014E00220010011E0032001000EE00420BF
:1083800001000BE00520010008E00620010005E0E7
:108390000720010002E008200100FFE73000C0B222
:1083A0000423B84AB4465FFA8CFC5FF0040E9CFBD1
:1083B000FEFCB6465FFA8EFE5FF004099EFBF9FEF6
:1083C00052F82EE05FF00F0990FBF3FA03FB1A005E
:1083D000C0B2800019FA00F93EEA090E42F82CE01A
:1083E0003000C0B20423B4465FFA8CFC5FF0040E88
:1083F0009CFBFEFCB6465FFA8EFE5FF004099EFB16
:10840000F9FE52F82EE089465FFA89F990FBF3FAFB
:1084100003FB1A00C0B2800019FA00F959EA0E0EE7
:1084200042F82CE00122984BD3F800C012FA06F073
:1084300050EA0C0CC3F800C04046C0B2002803D07C
:10844000022820D010D32DE0904BD3F800C012FAB0
:1084500006F050EA0C0CC3F800C08D480368B24027
:1084600033EA020202601DE0894BD3F800C012FA21
:1084700006F03CEA000CC3F800C084480368B24030
:108480001A4302600EE0814BD3F800C012FA06F0E6
:1084900050EA0C0CC3F800C07D480368B2401A4390
:1084A0000260FFE72000C0B2102801DB0F200400AB
:1084B0003000C0B200281CD0022830D024D30428B9
:1084C00043D037D3062856D04AD3082869D05DD385
:1084D0000A287CD070D30C2800F08F80C0F08280F6
:1084E0000E2800F0A080C0F093800F2800F0A68036
:1084F000AFE06848027852EA0412027066480268E7
:1085000052F040020260A4E06448027852EA041289
:1085100002706148026852F08002026099E060488F
:10852000027852EA041202705B48026852F48072C8
:1085300002608EE05B48027852EA041202705648EC
:10854000026852F40072026083E05748027852EAEF
:10855000041202705048026852F48062026078E0AF
:108560005248027852EA041202704B48026852F4F0
:10857000000202606DE04D48027852EA0412027077
:108580004548026852F40002026062E047480278FF
:1085900052EA041202704048026852F4000202607B
:1085A00057E04248027852EA041202703A480268E0
:1085B00052F4000202604CE03C48027852EA041295
:1085C00002703548026852F40002026041E0384807
:1085D000027852EA041202703648026852F480723D
:1085E000026036E03248027852EA041202703148E2
:1085F000026852F4007202602BE02D48027852EAC1
:10860000041202702B48026852F48062026020E07B
:108610002748027852EA041202702648026852F48F
:108620000062026015E02248027852EA04120270E9
:108630002048026852F4805202600AE01C48027826
:1086400052EA041202701B48026852F4005202609F
:10865000FFE762B6BDE8F087000002400004024078
:1086600000080240000C02400010024000140240CA
:1086700000180240001C0240002002403038024036
:108680004438024008380140003C0140083C0140A9
:108690000C3C014006E400E000E100E007E400E0FB
:1086A00008E400E009E400E00AE400E017E400E088
:1086B00028E400E004E100E030B41300DBB2012B59
:1086C0000CD10124856914FA01F31D438561856984
:1086D00011F110039C4035EA040484611300DBB2FD
:1086E000002B0BD10124856914FA01F39D438561A8
:1086F000856911F110039C402C43846130BC7047A4
:108700002DE9F84F05000E00170098460B9C5FF00E
:1087100000092000C0B2002803D02800C0B2002801
:1087200019D1DFF818A3DAF8000050F00100CAF8F8
:10873000000000F0BBF98146DAF8000080072BD476
:1087400000F0B4F9B0EB090040F2E9318842F3D30C
:108750000020814620E02000C0B2012803D028007C
:10876000C0B2012818D1DFF8D4A2DAF8000050F422
:108770008030CAF8000000F099F98146DAF800006C
:10878000800309D400F092F9B0EB090040F2E9311E
:108790008842F3D300208146A948016851F08051F6
:1087A0000160A848016851F44041016040F2057041
:1087B000A5490860DFF894A2DAF800003100C9B2D8
:1087C00050EA0110CAF80000DAF800003900C9B216
:1087D00050EA8120CAF80000DAF800004146C9B228
:1087E00050EA4130CAF800009948BDF83010BDF891
:1087F000342051EA8211BDF83820022392FBF3F2B3
:10880000521E51EA024101602100C9B2002904D17F
:10881000016831F48001016007E02100C9B201293B
:1088200003D1016851F4800101609DF828000028FF
:1088300005D18248016831F0807101601CE09DF82B
:108840002800012818D1DFF8F4B1DBF8000050F05F
:108850008070CBF8000000F029F98146DBF80000B9
:10886000800109D400F022F9B0EB090040F2E931AF
:108870008842F3D300208146DAF800102800C0B205
:108880000143CAF8001000F011F98346DAF800003D
:108890002900C9B210EA810F09D100F007F9B0EB45
:1088A0000B0040F2E9318842F0D300208346694A48
:1088B000002010606849002008605FF000095FF048
:1088C000000A2800C0B2002802D164481060B0E05D
:1088D0002800C0B2012802D161481060A9E0280038
:1088E000C0B2022840F0A5809DF82800012840F081
:1088F000A0802000C0B2002802D15848814605E07F
:108900002000C0B2012801D155488146BDF8300091
:10891000B9FBF0F3BDF834004343BDF83800B3FBB6
:10892000F0F08246C2F800A03000C0B2002801D1A9
:10893000012032E03000C0B2082801D102202CE032
:108940003000C0B2092801D1042026E03000C0B2B6
:108950000A2801D1082020E03000C0B20B2801D144
:1089600010201AE03000C0B20C2801D1402014E0E1
:108970003000C0B20D2801D180200EE03000C0B21E
:108980000E2802D14FF4807007E03000C0B20F28EB
:1089900002D14FF4007000E001201268B2FBF0F049
:1089A00008603800C0B2002801D1012018E038006A
:1089B000C0B2042801D1022012E03800C0B205285C
:1089C00001D104200CE03800C0B2062801D10820F3
:1089D00006E03800C0B2072801D1102000E00120D5
:1089E0000A68B2FBF0F01F4A10604046C0B200288F
:1089F00001D1012018E04046C0B2042801D1022074
:108A000012E04046C0B2052801D104200CE04046E7
:108A1000C0B2062801D1082006E04046C0B20728AF
:108A200001D1102000E001200968B1FBF0F00E49EF
:108A3000086000F01BF8BDE8F18F00BF003802406D
:108A40004038024000700040003C024008380240BC
:108A5000043802400C000020100000200024F40024
:108A600000127A0014000020180000201748016846
:108A7000490849000160016851F004010160016882
:108A800051F002010160124900220A600022114BDC
:108A90001A60114A12684FF47A73B2FBF3F2521E55
:108AA0000A60016851F00101016070470B480068DD
:108AB000704780B50A480B49016000680121B0FB8E
:108AC000F1F005490860FFF7D1FF01BD10E000E0BB
:108AD00014E000E018E000E0100000201C0000207E
:108AE0000C0000200024F40038B504003D48016863
:108AF00051F0100101603C4D0223002209212800A1
:108B0000FFF7C6FB022300220A212800FFF7C0FB63
:108B10003648016831F0F0010160016851F07001E0
:108B20000160016831F470610160016851F4E06135
:108B300001602F48016831F4005101602D492E4A2F
:108B400092ED000AB8EE400A220100EE902AF8EEFB
:108B5000600A80EE200A81ED000A284A91ED000AA1
:108B6000BDEEC00A10EE103A1380254B158800EEBA
:108B7000105AB8EE400AD1ED000A30EEC00ABFEE3E
:108B8000460A10EE101A198011881A7812F00F0296
:108B900052EA01121B490A60016851F02C01016080
:108BA000016851F40051016020201749086010202D
:108BB0001649087031BD38B50400FFF777FF05008E
:108BC00013480068C0F3C010002806D1FFF76EFFFD
:108BD000401B6528F4D3002005002000C0B20D49D9
:108BE000086031BD443802400000024024000240C9
:108BF0000C1001402000002018000020240000205C
:108C0000260000200810014004E100E025E400E017
:108C1000001001400410014038B50400FFF746FF82
:108C20000500207800280CD0FFF740FF401B652886
:108C300002D30020050004E02078FFF7BCFF641C8D
:108C4000EFE731BD4748016851F00101016070470D
:108C50004448016851F002010160704741480168D1
:108C600051F00401016070473E48016851F008016D
:108C7000016070473B48016851F010010160704786
:108C800038480168890603D5016851F02001016068
:108C90000168490603D5016851F04001016001688F
:108CA000090603D5016851F0800101600168C9051A
:108CB00003D5016851F4807101600168890503D50D
:108CC000016851F400710160704726480168490548
:108CD00003D5016851F4806101600168090503D57D
:108CE000016851F4006101600168C90403D501689D
:108CF00051F4805101600168890403D5016851F481
:108D0000005101600168490403D5016851F48041B4
:108D100001600168090403D5016851F40041016054
:108D2000704711480068800615D510481049096839
:108D3000017001780A2902D1002141700BE001780D
:108D40004278024491704178491C417041780A2967
:108D500001DB00214170704706480168491C016031
:108D600070470000143C014000100140000000204A
:108D7000041001401C000020FEE700001EF0040F5C
:108D80000CBFEFF30880EFF30980F5E7704730B4CC
:108D9000002513E050F8042BD30744BFA9F10103C9
:108DA0009A18091F042942F8045BFAD213468C076B
:108DB00044BF15809B1CC90748BF1D7050F8041B99
:108DC0000029E7D130BC704730B585B0FFF771FEA0
:108DD000642000F041F802200490A82003900420B1
:108DE000029001200190012000900423052200211F
:108DF0000220FFF785FC154C0123002206212000EC
:108E0000FFF728FA124D0F200090022301220421BF
:108E10002800FFF76DFA0F200090022301220321A2
:108E20002800FFF765FA5FF4E130FFF75DFE0022EE
:108E300006212000FFF740FC4FF47A7000F00CF898
:108E40000448FFF7E9FE00F019F8FCE700000240D3
:108E5000001002407C8F00080749096842F2107236
:108E6000B1FBF2F300FB03F211004A1E002901D00E
:108E700000BFF9E7704700BF0C00002080B5104824
:108E8000817862290AD1C1786F2907D101796F29C8
:108E900004D14079742801D100F002F801BD00002E
:108EA00070B55FF000600468064805682E0084F322
:108EB00008885FF0006004490860B04770BD00009A
:108EC000000000200400000808ED00E010B507498C
:108ED00079441831064C7C44163404E00A68081DB5
:108EE000114488470146A142F8D110BD2C00000072
:108EF000380000004EF68851CEF20001086840F4B8
:108F000070000860BFF34F8FBFF36F8F4FF000709A
:108F1000E1EE100A7047000077FEFFFF2800000016
:108F2000000000200000000000F00DF8002801D033
:108F3000FFF7CCFFAFF300800020AFF30080FFF716
:108F400043FF00F002F80120704700F001B8000074
:108F50000746384600F002F8FBE7000080B5AFF3A3
:108F60000080024A11001820ABBEFBE72600020079
:108F7000AFF30080FFF7BEFFFFF7D6FF696E2061F9
:108F800070700A0000480047718F0008FFF7FEBFAD
:108F9000FFF7FEBFFFF7FEBFFFF7FEBFFFF7FEBF05
:108FA000FFF7FEBFFFF7FEBFFFF7FEBFFFF7FEBFF5
:108FB000FFF7FEBFFFF7FEBFFFF7FEBFFFF7FEBFE5
:108FC000FFF7FEBFFFF7FEBFFFF7FEBFFFF7FEBFD5
:108FD000FFF7FEBFFFF7FEBFFFF7FEBFFFF7FEBFC5
:108FE000FFF7FEBFFFF7FEBFFFF7FEBFFFF7FEBFB5
:108FF000FFF7FEBFFFF7FEBFFFF7FEBFFFF7FEBFA5
:10900000FFF7FEBFFFF7FEBFFFF7FEBFFFF7FEBF94
:10901000FFF7FEBFFFF7FEBFFFF7FEBFFFF7FEBF84
:10902000FFF7FEBFFFF7FEBFFFF7FEBFFFF7FEBF74
:10903000FFF7FEBFFFF7FEBFFFF7FEBFFFF7FEBF64
:10904000FFF7FEBFFFF7FEBFFFF7FEBFFFF7FEBF54
:10905000FFF7FEBFFFF7FEBFFFF7FEBFFFF7FEBF44
:10906000FFF7FEBFFFF7FEBFFFF7FEBFFFF7FEBF34
:10907000FFF7FEBFFFF7FEBFFFF7FEBFFFF7FEBF24
:10908000FFF7FEBFFFF7FEBFFFF7FEBFFFF7FEBF14
:10909000FFF7FEBFFFF7FEBFFFF7FEBFFFF7FEBF04
:1090A000FFF7FEBFFFF7FEBFFFF7FEBFFFF7FEBFF4
:1090B000FFF7FEBFFFF7FEBFFFF7FEBFFFF7FEBFE4
:0C90C000FFF7FEBFFFF7FEBFFFF7FEBF8B
:0400000508008F71EF
:00000001FF
