:020000040800F2
:1000000048200020E9120008F1120008DD11000864
:10001000F5120008F9120008FD12000800000000A7
:1000200000000000000000000000000001130008B4
:10003000051300080000000009130008B9110008AA
:100040000D130008111300081513000819130008F8
:100050001D13000821130008B1100008BD1000088E
:10006000C9100008D5100008E11000082513000889
:10007000291300082D130008311300083513000858
:10008000391300083D130008411300084513000808
:10009000491300084D13000851130008ED10000823
:1000A00055130008591300085D1300086113000878
:1000B00065130008691300086D1300087113000828
:1000C00075130008791300087D13000881130008D8
:1000D000851300088F110008891300088D1300088C
:1000E00037110008911300089513000899130008B0
:1000F0009D130008A1130008A5130008A913000808
:10010000AD130008B1130008B5130008B9130008B7
:10011000BD130008C1130008C5130008C913000867
:10012000CD130008D1130008D5130008D913000817
:10013000DD130008E1130008E5130008E9130008C7
:10014000ED130008F1130008F5130008F913000877
:10015000FD13000801140008051400080914000824
:100160000D140008111400081514000819140008D3
:100170001D140008211400082514000800000000C8
:10018000291400082D1400080100DFF8CC24914246
:1001900020D0DFF8C824914223D0DFF8C424914254
:1001A00026D0DFF8C024914229D0DFF8BC24914248
:1001B0002CD0DFF8B82491422FD0DFF8B42491423C
:1001C00032D0DFF8B024914235D0DFF8AC24914230
:1001D00038D03EE0DFF8A4140A6852F001020A6049
:1001E00037E0DFF898140A6852F002020A6030E043
:1001F000DFF888140A6852F004020A6029E0DFF888
:100200007C140A6852F008020A6022E0DFF86C14DD
:100210000A6852F010020A601BE0DFF860140A68F6
:1002200052F020020A6014E0DFF850140A6852F01D
:1002300040020A600DE0DFF844140A6852F08002C0
:100240000A6006E0DFF834140A6852F480720A602B
:10025000FFE77047F8B504000D0016001F002000EE
:10026000FFF792FF21680122EDB26800824011433E
:10027000216060683100C9B2A94008436060A1688C
:100280003A00D2B2EDB2680082401143A160F1BDE4
:10029000F8B504000D0016001F002000FFF774FFE2
:1002A00021680222EDB2680082401143216060683B
:1002B0003100C9B2A94008436060A1683A00D2B2D7
:1002C000EDB2680082401143A160F1BD70B5040039
:1002D0000D0016002000FFF757FF20682060E1683E
:1002E0003200D2B2EDB2680082401143E16070BDCD
:1002F0002DE9F04705000E0017009846089C3A00CB
:10030000D2B23100C9B22800FFF7E0FFDFF8700376
:10031000016851F480410160FF212800DFF8382393
:10032000904220D0DFF8342390421FD0DFF83023F2
:1003300090421ED0DFF82C2390421DD0DFF82823F6
:1003400090421CD0DFF8242390421BD0DFF82023FA
:1003500090421AD0DFF81C23904219D0DFF81823FE
:10036000904218D01AE00020010017E0012001009F
:1003700014E00220010011E0032001000EE004203F
:1003800001000BE00520010008E00620010005E067
:100390000720010002E008200100FFE73000C0B2A2
:1003A0000423B84AB4465FFA8CFC5FF0040E9CFB51
:1003B000FEFCB6465FFA8EFE5FF004099EFBF9FE76
:1003C00052F82EE05FF00F0990FBF3FA03FB1A00DE
:1003D000C0B2800019FA00F93EEA090E42F82CE09A
:1003E0003000C0B20423B4465FFA8CFC5FF0040E08
:1003F0009CFBFEFCB6465FFA8EFE5FF004099EFB96
:10040000F9FE52F82EE089465FFA89F990FBF3FA7B
:1004100003FB1A00C0B2800019FA00F959EA0E0E67
:1004200042F82CE00122984BD3F800C012FA06F0F3
:1004300050EA0C0CC3F800C04046C0B2002803D0FC
:10044000022820D010D32DE0904BD3F800C012FA30
:1004500006F050EA0C0CC3F800C08D480368B240A7
:1004600033EA020202601DE0894BD3F800C012FAA1
:1004700006F03CEA000CC3F800C084480368B240B0
:100480001A4302600EE0814BD3F800C012FA06F066
:1004900050EA0C0CC3F800C07D480368B2401A4310
:1004A0000260FFE72000C0B2102801DB0F2004002B
:1004B0003000C0B200281CD0022830D024D3042839
:1004C00043D037D3062856D04AD3082869D05DD305
:1004D0000A287CD070D30C2800F08F80C0F0828076
:1004E0000E2800F0A080C0F093800F2800F0A680B6
:1004F000AFE06848027852EA041202706648026867
:1005000052F040020260A4E06448027852EA041209
:1005100002706148026852F08002026099E060480F
:10052000027852EA041202705B48026852F4807248
:1005300002608EE05B48027852EA0412027056486C
:10054000026852F40072026083E05748027852EA6F
:10055000041202705048026852F48062026078E02F
:100560005248027852EA041202704B48026852F470
:10057000000202606DE04D48027852EA04120270F7
:100580004548026852F40002026062E0474802787F
:1005900052EA041202704048026852F400020260FB
:1005A00057E04248027852EA041202703A48026860
:1005B00052F4000202604CE03C48027852EA041215
:1005C00002703548026852F40002026041E0384887
:1005D000027852EA041202703648026852F48072BD
:1005E000026036E03248027852EA04120270314862
:1005F000026852F4007202602BE02D48027852EA41
:10060000041202702B48026852F48062026020E0FB
:100610002748027852EA041202702648026852F40F
:100620000062026015E02248027852EA0412027069
:100630002048026852F4805202600AE01C480278A6
:1006400052EA041202701B48026852F4005202601F
:10065000FFE762B6BDE8F0870000024000040240F8
:1006600000080240000C024000100240001402404A
:1006700000180240001C02400020024030380240B6
:100680004438024008380140003C0140083C014029
:100690000C3C014006E400E000E100E007E400E07B
:1006A00008E400E009E400E00AE400E017E400E008
:1006B00028E400E004E100E030B41300DBB2012BD9
:1006C0000CD10124856914FA01F31D438561856904
:1006D00011F110039C4035EA040484611300DBB27D
:1006E000002B0BD10124856914FA01F39D43856128
:1006F000856911F110039C402C43846130BC704724
:1007000030B585B000F025FA642000F049FA0220E7
:100710000490A82003900420029001200190012061
:100720000090042305220021022000F04BFADFF89C
:1007300084430123002206212000FFF78BFDDFF810
:1007400078530F2000900223012204212800FFF794
:10075000CFFD0F2000900223012203212800FFF784
:10076000C7FD012206212000FFF7A6FF00F016F9C1
:100770000A2000F015FA5FF4E13000F0D9FBDFF851
:100780003C0300F053FC0020DFF834130870DFF85E
:100790003403DFF8341309680170007800280AD1A7
:1007A000DFF82803DFF828130860DFF82803DFF8F4
:1007B0002813086009E0DFF81C03DFF81413086051
:1007C000DFF80803DFF810130860DFF80C03006897
:1007D000DFF80813086000F023F8FCE730B40200EB
:1007E0000023002004000D00E4B2EDB2AC4205D2BB
:1007F0000400E4B2145D1B19401CF3E7D843401C0D
:10080000C0B230BC70470000F8B504002568201D58
:100810000668370085F30888B1480460B847F1BD21
:10082000F8B5A74D2878002802D0012870D0B4E090
:10083000AC4C206842F21171884206D3A44800688B
:10084000FFF7E2FF002020604EE0A74881786A2988
:100850000FD1C17875290CD101796D2909D1417960
:10086000702906D19A480068FFF7CEFF002020606B
:100870003AE08178632937D1C178682934D1017988
:10088000652931D1417963292ED180796B282BD10B
:100890008C480078002812D1022000F099F803203B
:1008A00000F096F8042000F093F8052000F090F88E
:1008B000062000F08DF8072000F08AF80BE00820F1
:1008C00000F086F8092000F083F80A2000F080F894
:1008D0000B2000F07DF80120287075A000F0A6FB29
:1008E00000F0BAFB002020602068401C206001203E
:1008F00000F04AF94FF47A7021682268B2FBF0F2F6
:1009000000FB1210002802D1784800F08FFB44E071
:10091000754CE07CAA283FD1A51C754E10212800FB
:10092000FFF75CFF30703078A17C884210D16B4FAC
:1009300010222900386800F078F80A2000F024F925
:1009400038681030386000F087FB59A000F06EFB6B
:100950003078602820D1A078AA281DD1E07CAA2870
:100960001AD1584C2078002802D1FF20207001E0D5
:1009700000202070012000F02BF80A2000F004F97C
:1009800001222100504800F050F80A2000F0FCF845
:1009900051480068FFF738FFFFE7F1BD55490A6885
:1009A00040F2057002430A607047534801684900ED
:1009B00007D55249524A0A60524A0A600168002922
:1009C000FCD470474C48016851F000410160704709
:1009D00049490A68002A04D5484A494B1360494BE3
:1009E0001360494A1368DB03FBD4136853F03403E4
:1009F00013600B6833F45E730B600B6853F00203F3
:100A00000B600B6853EAC0030B600B6853F4803330
:100A10000B601368DB03FCD40A6832F002020A6040
:100A20000A6852F000420A607047F8B504000D00F1
:100A30001600FFF7BAFF30480168002904D52F4996
:100A40002F4A0A602F4A0A602F490A68D203FBD452
:100A5000026832F440720260026852F4007202606E
:100A6000026852F0010202600022B24217D25FF027
:100A7000FF3300930023042B09DA9F18B74204D2F6
:100A80009F18EF5DEC460CF803705B1CF3E7009BCE
:100A900017193B600B68DB03FCD4121DE5E7016806
:100AA000490849000160FFF78DFFF1BD000000001B
:100AB0006F6B00000000024000100240C4120008EA
:100AC000420000204100002000400008000008080B
:100AD00018000020008000081C00002020000020DA
:100AE00008ED00E01400002000000020D0120008F3
:100AF00040000020003C0240103C0240043C024008
:100B000023016745AB89EFCD0C3C024017480168D3
:100B1000490849000160016851F004010160016861
:100B200051F002010160124900220A600022114BBB
:100B30001A60114A12684FF47A73B2FBF3F2521E34
:100B40000A60016851F00101016070470B480068BC
:100B5000704780B50A480B49016000680121B0FB6D
:100B6000F1F005490860FFF7D1FF01BD10E000E09A
:100B700014E000E018E000E028000020340000202D
:100B8000240000200024F40070B504000025FFF7C5
:100B9000DDFF0600FFF7DAFF801BA042FAD170BD2F
:100BA0000749096842F21072B1FBF2F300FB03F24D
:100BB00011004A1E002901D000BFF9E7704700BFAD
:100BC000240000202DE9F84F05000E00170098467C
:100BD0000B9C5FF000092000C0B2002803D0280061
:100BE000C0B2002819D1DFF818A3DAF8000050F0DD
:100BF0000100CAF80000FFF7A9FF8146DAF80000FB
:100C000080072BD4FFF7A2FFB0EB090040F2E931D7
:100C10008842F3D30020814620E02000C0B20128A2
:100C200003D02800C0B2012818D1DFF8D4A2DAF826
:100C3000000050F48030CAF80000FFF787FF8146BB
:100C4000DAF80000800309D4FFF780FFB0EB090059
:100C500040F2E9318842F3D300208146A948016877
:100C600051F080510160A848016851F44041016091
:100C700040F20570A5490860DFF894A2DAF8000098
:100C80003100C9B250EA0110CAF80000DAF80000D9
:100C90003900C9B250EA8120CAF80000DAF8000031
:100CA0004146C9B250EA4130CAF800009948BDF83F
:100CB0003010BDF8342051EA8211BDF838200223EB
:100CC00092FBF3F2521E51EA024101602100C9B2C7
:100CD000002904D1016831F48001016007E021009E
:100CE000C9B2012903D1016851F4800101609DF866
:100CF0002800002805D18248016831F08071016028
:100D00001CE09DF82800012818D1DFF8F4B1DBF8C9
:100D1000000050F08070CBF80000FFF717FF81460D
:100D2000DBF80000800109D4FFF710FFB0EB0900E9
:100D300040F2E9318842F3D300208146DAF800100E
:100D40002800C0B20143CAF80010FFF7FFFE834637
:100D5000DAF800002900C9B210EA810F09D1FFF7C3
:100D6000F5FEB0EB0B0040F2E9318842F0D30020F1
:100D70008346694A002010606849002008605FF0DF
:100D800000095FF0000A2800C0B2002802D16448C0
:100D90001060B0E02800C0B2012802D161481060A4
:100DA000A9E02800C0B2022840F0A5809DF82800E4
:100DB000012840F0A0802000C0B2002802D158488D
:100DC000814605E02000C0B2012801D15548814686
:100DD000BDF83000B9FBF0F3BDF834004343BDF873
:100DE0003800B3FBF0F08246C2F800A03000C0B279
:100DF000002801D1012032E03000C0B2082801D122
:100E000002202CE03000C0B2092801D1042026E0E5
:100E10003000C0B20A2801D1082020E03000C0B262
:100E20000B2801D110201AE03000C0B20C2801D1EB
:100E3000402014E03000C0B20D2801D180200EE027
:100E40003000C0B20E2802D14FF4807007E03000AD
:100E5000C0B20F2802D14FF4007000E001201268E8
:100E6000B2FBF0F008603800C0B2002801D10120C8
:100E700018E03800C0B2042801D1022012E0380086
:100E8000C0B2052801D104200CE03800C0B2062809
:100E900001D1082006E03800C0B2072801D1102097
:100EA00000E001200A68B2FBF0F01F4A10604046E3
:100EB000C0B2002801D1012018E04046C0B2042889
:100EC00001D1022012E04046C0B2052801D1042021
:100ED0000CE04046C0B2062801D1082006E040469A
:100EE000C0B2072801D1102000E001200968B1FB41
:100EF000F0F00E490860FFF709FEBDE8F18F00BF72
:100F0000003802404038024000700040003C02407F
:100F10000838024004380240240000202800002045
:100F20000024F40000127A002C0000203000002081
:100F300038B504005048016851F0100101604F4D70
:100F40000223002209212800FFF7A2F90223002230
:100F50000A212800FFF79CF94948016831F0F001A7
:100F60000160016851F070010160016831F4706145
:100F70000160016851F4E06101604248016831F4A8
:100F8000005101604049414A92ED000AB8EE400A22
:100F9000220100EE902AF8EE600A80EE200A81ED30
:100FA000000A3B4A91ED000ABDEEC00A10EE103A6D
:100FB0001380384B158800EE105AB8EE400AD1ED78
:100FC000000A30EEC00ABFEE460A10EE101A198071
:100FD00011881A7812F00F0252EA01122E490A60A3
:100FE000016851F02C010160016851F40051016069
:100FF00020202A49086010202949087031BD38B5E1
:101000000400FFF7A3FD050026480068C0F3C010E8
:10101000002806D1FFF79AFD401B6528F4D3002075
:1010200005002000C0B22049086031BD38B5040079
:10103000FFF78CFD0500207800280CD0FFF786FD17
:10104000401B652802D30020050004E02078FFF74C
:10105000D6FF641CEFE731BD002012280ADA1349DD
:1010600000220A70002201EB00039A7000224A70ED
:10107000401CF2E770470000443802400000024084
:10108000240002400C1001403800002030000020F5
:101090003C0000203E0000200810014004E100E078
:1010A00025E400E000100140041001400000002091
:1010B0004448016851F001010160704741480168EE
:1010C00051F00201016070473E48016851F004018F
:1010D000016070473B48016851F0080101607047AA
:1010E0003848016851F010010160704735480168C7
:1010F000890603D5016851F02001016001684906A5
:1011000003D5016851F0400101600168090603D56B
:10111000016851F0800101600168C90503D50168CB
:1011200051F4807101600168890503D5016851F4AB
:1011300000710160704723480168490503D50168C3
:1011400051F4806101600168090503D5016851F41B
:10115000006101600168C90403D5016851F4805140
:1011600001600168890403D5016851F400510160F0
:101170000168490403D5016851F4804101600168A8
:10118000090403D5016851F40041016070470E481D
:10119000006880060FD50D480D4909680170017877
:1011A0004278024491704178491C41704178142979
:1011B00001DB00214170704706480168491C01604D
:1011C00070470000143C0140001001400000002066
:1011D0000410014034000020FEE700001EF0040F60
:1011E0000CBFEFF30880EFF30980F5E7704730B4E8
:1011F0000EE00268436802440830DC0744BFA9F1EE
:101200000104E31852F8045B43F8045B091FF9D1A9
:1012100050F8041B0029ECD130BC704710B50749C9
:1012200079441831064C7C44163404E00A68081DE1
:10123000114488470146A142F8D110BD2C0000009E
:101240003C0000004EF68851CEF20001086840F4E0
:1012500070000860BFF34F8FBFF36F8F4FF00070C7
:10126000E1EE100A7047000087FFFFFF4400000016
:10127000C0010000000000200000000000F00DF898
:10128000002801D0FFF7CAFFAFF300800020AFF3C2
:101290000080FFF735FA00F002F80120704700F0F7
:1012A00001B800000746384600F002F8FBE70000EE
:1012B00080B5AFF30080024A11001820ABBEFBE7F7
:1012C00026000200696E20626F6F740A0000000041
:1012D000626F6F7474696E67200A0000AFF300805C
:1012E000FFF7B0FFFFF7CAFF00480047DD12000814
:1012F000FFF7FEBFFFF7FEBFFFF7FEBFFFF7FEBF22
:10130000FFF7FEBFFFF7FEBFFFF7FEBFFFF7FEBF11
:10131000FFF7FEBFFFF7FEBFFFF7FEBFFFF7FEBF01
:10132000FFF7FEBFFFF7FEBFFFF7FEBFFFF7FEBFF1
:10133000FFF7FEBFFFF7FEBFFFF7FEBFFFF7FEBFE1
:10134000FFF7FEBFFFF7FEBFFFF7FEBFFFF7FEBFD1
:10135000FFF7FEBFFFF7FEBFFFF7FEBFFFF7FEBFC1
:10136000FFF7FEBFFFF7FEBFFFF7FEBFFFF7FEBFB1
:10137000FFF7FEBFFFF7FEBFFFF7FEBFFFF7FEBFA1
:10138000FFF7FEBFFFF7FEBFFFF7FEBFFFF7FEBF91
:10139000FFF7FEBFFFF7FEBFFFF7FEBFFFF7FEBF81
:1013A000FFF7FEBFFFF7FEBFFFF7FEBFFFF7FEBF71
:1013B000FFF7FEBFFFF7FEBFFFF7FEBFFFF7FEBF61
:1013C000FFF7FEBFFFF7FEBFFFF7FEBFFFF7FEBF51
:1013D000FFF7FEBFFFF7FEBFFFF7FEBFFFF7FEBF41
:1013E000FFF7FEBFFFF7FEBFFFF7FEBFFFF7FEBF31
:1013F000FFF7FEBFFFF7FEBFFFF7FEBFFFF7FEBF21
:10140000FFF7FEBFFFF7FEBFFFF7FEBFFFF7FEBF10
:10141000FFF7FEBFFFF7FEBFFFF7FEBFFFF7FEBF00
:10142000FFF7FEBFFFF7FEBFFFF7FEBFFFF7FEBFF0
:1014300000000000000000000000000000000000AC
:10144000000000000000000000000000000000009C
:10145000000000000000000000000000000000008C
:10146000000000000000000000000000000000007C
:04147000FFFF00007A
:04000005080012DD00
:00000001FF
